:100000000C9434000C943E000C943E000C943E0082
:100010000C943E000C943E000C943E000C943E0068
:100020000C943E000C943E000C943E000C943E0058
:100030000C943E000C943E000C943E000C943E0048
:100040000C943E000C943E000C943E000C943E0038
:100050000C943E000C943E000C943E000C943E0028
:100060000C943E000C943E0011241FBECFEFD4E050
:10007000DEBFCDBF0E9455000C94B1000C9400006F
:1000800067E070E00E948900685F7F4FCB010895B0
:1000900066E070E00E948900645F7F4F67327105FF
:1000A00014F065E270E0CB01089583EA84BD83E03B
:1000B00085BD8FEF84B917B88AB92CE08BE195E242
:1000C00027BD3FEF49E658E1315040405040E1F74D
:1000D00000C0000087BD3FEF49E658E13150404085
:1000E0005040E1F700C0000097BD3FEF49E658E1FE
:1000F000315040405040E1F700C0000087BD3FEF65
:1001000049E658E1315040405040E1F700C000005E
:10011000D7CF97FB072E16F4009407D077FD09D0B0
:100120000E949D0007FC05D03EF4909581959F4F5D
:100130000895709561957F4F0895AA1BBB1B51E1EF
:1001400007C0AA1FBB1FA617B70710F0A61BB70B47
:10015000881F991F5A95A9F780959095BC01CD01EC
:060160000895F894FFCFA2
:00000001FF
