:100000000C9434000C943E000C943E000C943E0082
:100010000C943E000C943E000C943E000C943E0068
:100020000C943E000C943E000C943E000C943E0058
:100030000C943E000C943E000C943E000C943E0048
:100040000C943E000C943E000C943E000C943E0038
:100050000C943E000C943E000C943E000C943E0028
:100060000C943E000C943E0011241FBECFEFD4E050
:10007000DEBFCDBF0E9455000C94B0000C94000070
:1000800067E070E00E948800685F7F4FCB010895B1
:1000900066E070E00E948800645F7F4F6732710500
:1000A00014F065E270E0CB01089583EA84BD83E03B
:1000B00085BD8FEF84B917B88AB991E186E197BD04
:1000C0002FEF39E648E1215030404040E1F700C0D1
:1000D000000087BD2FEF39E648E121503040404015
:1000E000E1F700C0000097BD2FEF39E648E121504D
:1000F00030404040E1F700C0000087BD2FEF39E6F7
:1001000048E1215030404040E1F700C00000D7CF27
:1001100097FB072E16F4009407D077FD09D00E94B4
:100120009C0007FC05D03EF4909581959F4F089563
:10013000709561957F4F0895AA1BBB1B51E107C0C5
:10014000AA1FBB1FA617B70710F0A61BB70B881F67
:10015000991F5A95A9F780959095BC01CD010895F6
:04016000F894FFCF41
:00000001FF
