:100000000C9434000C943E000C943E000C943E0082
:100010000C943E000C943E000C943E000C943E0068
:100020000C943E000C943E000C943E000C943E0058
:100030000C943E000C943E000C943E000C943E0048
:100040000C943E000C943E000C943E000C943E0038
:100050000C943E000C943E000C943E000C943E0028
:100060000C943E000C943E0011241FBECFEFD4E050
:10007000DEBFCDBF0E9440000C9489000C940000AC
:1000800082E8809380008CE18093810080E792E099
:1000900090938700809386008FEF84B917B88AB950
:1000A00024E230E089E390E03093890020938800D7
:1000B0004FEF59E668E1415050406040E1F700C021
:1000C000000090938900809388004FEF59E668E123
:1000D000415050406040E1F700C00000309389007B
:1000E000209388004FEF59E668E14150504060404E
:1000F000E1F700C0000090938900809388004FEFE3
:1001000059E668E1415050406040E1F700C000000E
:06011000CBCFF894FFCFF5
:00000001FF
