:100000000C9434000C9451000C9451000C94510049
:100010000C9451000C9451000C9451000C9451001C
:100020000C9451000C9451000C9451000C9451000C
:100030000C9451000C9451000C9451000C945100FC
:100040000C9451000C9451000C946C000C945100D1
:100050000C9451000C9451000C9451000C945100DC
:100060000C9451000C94510011241FBECFEFD4E02A
:10007000DEBFCDBF11E0A0E0B1E0EEE7F9E002C0E5
:1000800005900D92AC31B107D9F711E0ACE1B1E0C8
:1000900001C01D92AE31B107E1F70E9459040C94E2
:1000A000BD040C94000020E030E040E051E40E94E8
:1000B000490120E030E048EC52E40E942E020E9408
:1000C000D1026115710539F082E08A95F1F700C01F
:1000D00061507109C9F708951F920F920FB60F92E0
:1000E00011242F933F934F935F936F937F938F933D
:1000F0009F93AF93BF93EF93FF93E0911C01F09117
:100100001D010995FF91EF91BF91AF919F918F9143
:100110007F916F915F914F913F912F910F900FBE03
:100120000F901F90189590931D0180931C010895C6
:100130009093C5008093C40086E08093C200E1ECF8
:10014000F0E080818869808308958091C00087FFF6
:10015000FCCF8091C00084FF02C08FEF0895809192
:10016000C00083FDFACF8091C60008959091C00031
:1001700095FFFCCF8093C6000895FC0120812223C7
:1001800051F031968091C00085FFFCCF2093C600CE
:1001900021912111F7CF08958436B1F150F08636C0
:1001A00029F188F484E390E090938900809388009B
:1001B0000895823611F150F089E290E09093890021
:1001C000809388000895873651F008958136E9F7C5
:1001D00081E290E0909389008093880008958BE3FA
:1001E00090E09093890080938800089589E390E0DF
:1001F0009093890080938800089586E290E0909320
:1002000089008093880008958FE290E090938900A0
:10021000809388000895CF93DF93CDB7DEB76497BE
:100220000FB6F894DEBF0FBECDBF8091C00087FF30
:10023000FCCF8091C00084FD04C08091C00083FF8A
:1002400024C02FEF8FEF92E1E0E0F1E0DE011196A4
:1002500001900D929A95E1F71C8A1B8A298BFE0169
:10026000329622E59091C00095FFFCCF2093C60006
:1002700021912111F7CF64960FB6F894DEBF0FBE1F
:10028000CDBFDF91CF910C94CC008091C600282F78
:10029000DACFA0E2B0E0EFE4F1E00C9488046D8FD7
:1002A0007E8F8F8F98A3298F3A8F4B8F5C8FBE01E3
:1002B0006F5E7F4FCE014D960E94EA03BE01675FDD
:1002C0007F4FCE0149960E94EA039989923008F443
:1002D00012C08985823008F41AC0943021F482302B
:1002E00009F4B4C008C0843021F4923009F4AEC0DF
:1002F0000EC0923051F481E02A899A85291301C0F9
:1003000080E08A8BCE014196A3C0823051F481E017
:100310002A899A85291301C080E08A87CE0109962F
:1003200097C08D889E88AF88B88C0D851E852F85D7
:100330003889E0E2F0E080E090E0DC01C12CD12CD3
:10034000760140E050E0BA0180FE18C0400F511F16
:10035000621F731F8C0D9D1DAE1DBF1D412C512CA6
:1003600032014394401751076207730718F0412C7C
:10037000512C3201840D951DA61DB71DCC0CDD1C22
:10038000EE1CFF1C37FF02C06894C0F8000F111F5D
:10039000221F331FB694A794979487943197A1F6A0
:1003A0002B893C89EB85FC852E0F3F1F2E5F3F4F2D
:1003B0003C832B8321E0EA893A85E31301C020E0E6
:1003C0002A83EB81FC810CC080FF05C07695679580
:1003D000579547957068B695A795979587953196E7
:1003E000B7FDF2CF9F010CC0880F991FAA1FBB1F3A
:1003F00077FD8160440F551F661F771F215031091B
:100400000097A105E0E4BE0778F32B833C838C01C1
:100410009D010F771127222733270034110521056D
:10042000310559F487FD09C0452B462B472B29F090
:10043000805C9F4FAF4FBF4F80788D839E83AF838B
:10044000B88783E08983CE01019602C084E191E000
:100450000E942003A096E0E10C94A404A8E1B0E07F
:10046000E4E3F2E00C9490046D8B7E8B8F8B988F7D
:10047000298B3A8B4B8B5C8BBE01675F7F4FCE0124
:1004800045960E94EA03BE016F5F7F4FCE01419601
:100490000E94EA039985923008F475C08981823000
:1004A00008F474C02A853A8123272A87943011F0F2
:1004B000923019F4981367C06CC0843039F41D86EB
:1004C0001E861F86188A1C861B8604C0823029F46B
:1004D00084E08987CE0109965EC08B859C852B813F
:1004E0003C81821B930B9C878B874D855E856F8536
:1004F0007889CD80DE80EF80F8844C155D056E052F
:100500007F0538F4440F551F661F771F01979C879E
:100510008B87EFE1F0E000E010E020E030E480E0E5
:1005200090E0DC014C155D056E057F0540F0802BE9
:10053000912BA22BB32B4C195D096E097F093695BF
:10054000279517950795440F551F661F771F3197FD
:1005500049F78C019D010F7711272227332700349B
:1005600011052105310559F487FD09C0452B462B9E
:10057000472B29F0805C9F4FAF4FBF4F80788D870E
:100580009E87AF87B88BCE01099605C0CE01019634
:1005900002C084E191E00E9420036896E8E00C9498
:1005A000AC04ACE0B0E0E7EDF2E00C9494046987B1
:1005B0007A878B879C87BE016F5F7F4FCE0109963C
:1005C0000E94EA038981823091F1823080F1843087
:1005D00041F48A81882331F100E010E020E030E826
:1005E00029C02B813C8137FD22C02F3131058CF78A
:1005F0008EE190E0821B930B0D811E812F81388547
:1006000004C036952795179507958A95D2F78A8164
:10061000882381F030952095109501951F4F2F4F1D
:100620003F4F08C00FEF1FEF2FEF3FE703C000E081
:1006300010E09801B801C9012C96E4E00C94B004D4
:100640000F931F93CF93DF93DC0114964D915D912F
:100650006D917C9117971196EC9111978C91823046
:1006600020F460618FEF90E0A6C0843009F49EC052
:10067000823009F495C0411551056105710509F4F1
:1006800092C012962D913C91139722388FEF380724
:100690000CF058C0C2E8DFEFC21BD30BCA31D10542
:1006A0006CF58A019B010C2E04C036952795179591
:1006B00007950A94D2F781E090E0A0E0B0E00C2E1C
:1006C00004C0880F991FAA1FBB1F0A94D2F7019775
:1006D000A109B10984239523A623B72341E050E063
:1006E00060E070E0892B8A2B8B2B19F440E050E0FE
:1006F000BA01402B512B622B732B03C040E050E01A
:10070000BA01DB01CA018F779927AA27BB2780345A
:100710009105A105B10539F447FF09C0405C5F4F61
:100720006F4F7F4F04C0415C5F4F6F4F7F4F81E041
:1007300090E041155105610520E4720748F580E01D
:1007400090E026C0203831058CF5DB01CA018F7797
:100750009927AA27BB2780349105A105B10539F453
:1007600047FF09C0405C5F4F6F4F7F4F04C0415C43
:100770005F4F6F4F7F4F77FD04C0C90181589F4F76
:1007800007C07695679557954795C90180589F4F43
:1007900097E076956795579547959A95D1F70BC051
:1007A00080E090E005C080E090E005C08FEF90E031
:1007B00040E050E0BA01982F9695E0FB97F9362F6C
:1007C00080FB37F9642F752F832FDF91CF911F9115
:1007D0000F910895CF92DF92EF92DC01FB01CC9054
:1007E0001196DC90119712968C9112973FE7E32EA9
:1007F000E8226E2DA60170E0982F991F9927991F66
:1008000013962C91822F880F892B90E027FB2227AB
:1008100020F92183009729F54115510561057105DE
:1008200011F482E027C082E89FEF9383828327E060
:10083000440F551F661F771F2A95D1F783E08083E9
:1008400009C0440F551F661F771F8281938101974E
:100850009383828341155105610580E4780788F30D
:1008600020C08F3F910579F441155105610571054F
:1008700019F484E0808319C0E4FE03C081E0808322
:1008800010C010820EC08F5791099383828383E03A
:10089000808387E0440F551F661F771F8A95D1F725
:1008A00070644483558366837783EF90DF90CF90A5
:1008B000089583E390E09093C5008093C40086E0A0
:1008C0008093C2008091C10088698093C1008BE051
:1008D00091E090931D0180931C01789482E88093AD
:1008E00080008CE18093810080E792E09093870004
:1008F000809386008FEF84B917B88AB983B7816077
:1009000083BF889583B78E7F83BFF8CF2F923F92A6
:100910004F925F926F927F928F929F92AF92BF920F
:10092000CF92DF92EF92FF920F931F93CF93DF93BB
:10093000CDB7DEB7CA1BDB0B0FB6F894DEBF0FBE18
:10094000CDBF09942A88398848885F846E847D8465
:100950008C849B84AA84B984C884DF80EE80FD8067
:100960000C811B81AA81B981CE0FD11D0FB6F894DD
:0E097000DEBF0FBECDBFED010895F894FFCF9E
:10097E0052656365697665642064617461203D200B
:0C098E000A000000000000000000000053
:00000001FF
